{
  "address": "0x5FbDB2315678afecb367f032d93F642f64180aa3",
  "abi": [
    {
      "inputs": [
        {
          "internalType": "string",
          "name": "name",
          "type": "string"
        },
        {
          "internalType": "string",
          "name": "symbol",
          "type": "string"
        }
      ],
      "stateMutability": "nonpayable",
      "type": "constructor"
    },
    {
      "inputs": [
        {
          "internalType": "address",
          "name": "sender",
          "type": "address"
        },
        {
          "internalType": "uint256",
          "name": "tokenId",
          "type": "uint256"
        },
        {
          "internalType": "address",
          "name": "owner",
          "type": "address"
        }
      ],
      "name": "ERC721IncorrectOwner",
      "type": "error"
    },
    {
      "inputs": [
        {
          "internalType": "address",
          "name": "operator",
          "type": "address"
        },
        {
          "internalType": "uint256",
          "name": "tokenId",
          "type": "uint256"
        }
      ],
      "name": "ERC721InsufficientApproval",
      "type": "error"
    },
    {
      "inputs": [
        {
          "internalType": "address",
          "name": "approver",
          "type": "address"
        }
      ],
      "name": "ERC721InvalidApprover",
      "type": "error"
    },
    {
      "inputs": [
        {
          "internalType": "address",
          "name": "operator",
          "type": "address"
        }
      ],
      "name": "ERC721InvalidOperator",
      "type": "error"
    },
    {
      "inputs": [
        {
          "internalType": "address",
          "name": "owner",
          "type": "address"
        }
      ],
      "name": "ERC721InvalidOwner",
      "type": "error"
    },
    {
      "inputs": [
        {
          "internalType": "address",
          "name": "receiver",
          "type": "address"
        }
      ],
      "name": "ERC721InvalidReceiver",
      "type": "error"
    },
    {
      "inputs": [
        {
          "internalType": "address",
          "name": "sender",
          "type": "address"
        }
      ],
      "name": "ERC721InvalidSender",
      "type": "error"
    },
    {
      "inputs": [
        {
          "internalType": "uint256",
          "name": "tokenId",
          "type": "uint256"
        }
      ],
      "name": "ERC721NonexistentToken",
      "type": "error"
    },
    {
      "inputs": [
        {
          "internalType": "uint256",
          "name": "newMintFee",
          "type": "uint256"
        }
      ],
      "name": "FileToken__InvalidMintFee",
      "type": "error"
    },
    {
      "inputs": [
        {
          "internalType": "uint256",
          "name": "requiredAmount",
          "type": "uint256"
        },
        {
          "internalType": "uint256",
          "name": "sentAmount",
          "type": "uint256"
        }
      ],
      "name": "FileToken__MoreEthNeeded",
      "type": "error"
    },
    {
      "inputs": [],
      "name": "FileToken__NoBalanceForWithdraw",
      "type": "error"
    },
    {
      "inputs": [],
      "name": "FileToken__WithdrawFailed",
      "type": "error"
    },
    {
      "inputs": [
        {
          "internalType": "address",
          "name": "owner",
          "type": "address"
        }
      ],
      "name": "OwnableInvalidOwner",
      "type": "error"
    },
    {
      "inputs": [
        {
          "internalType": "address",
          "name": "account",
          "type": "address"
        }
      ],
      "name": "OwnableUnauthorizedAccount",
      "type": "error"
    },
    {
      "anonymous": false,
      "inputs": [
        {
          "indexed": true,
          "internalType": "address",
          "name": "owner",
          "type": "address"
        },
        {
          "indexed": true,
          "internalType": "address",
          "name": "approved",
          "type": "address"
        },
        {
          "indexed": true,
          "internalType": "uint256",
          "name": "tokenId",
          "type": "uint256"
        }
      ],
      "name": "Approval",
      "type": "event"
    },
    {
      "anonymous": false,
      "inputs": [
        {
          "indexed": true,
          "internalType": "address",
          "name": "owner",
          "type": "address"
        },
        {
          "indexed": true,
          "internalType": "address",
          "name": "operator",
          "type": "address"
        },
        {
          "indexed": false,
          "internalType": "bool",
          "name": "approved",
          "type": "bool"
        }
      ],
      "name": "ApprovalForAll",
      "type": "event"
    },
    {
      "anonymous": false,
      "inputs": [
        {
          "indexed": false,
          "internalType": "uint256",
          "name": "_fromTokenId",
          "type": "uint256"
        },
        {
          "indexed": false,
          "internalType": "uint256",
          "name": "_toTokenId",
          "type": "uint256"
        }
      ],
      "name": "BatchMetadataUpdate",
      "type": "event"
    },
    {
      "anonymous": false,
      "inputs": [
        {
          "indexed": false,
          "internalType": "uint256",
          "name": "_tokenId",
          "type": "uint256"
        }
      ],
      "name": "MetadataUpdate",
      "type": "event"
    },
    {
      "anonymous": false,
      "inputs": [
        {
          "indexed": false,
          "internalType": "uint256",
          "name": "newMintFee",
          "type": "uint256"
        }
      ],
      "name": "MintFeeChanged",
      "type": "event"
    },
    {
      "anonymous": false,
      "inputs": [
        {
          "indexed": true,
          "internalType": "address",
          "name": "previousOwner",
          "type": "address"
        },
        {
          "indexed": true,
          "internalType": "address",
          "name": "newOwner",
          "type": "address"
        }
      ],
      "name": "OwnershipTransferred",
      "type": "event"
    },
    {
      "anonymous": false,
      "inputs": [
        {
          "indexed": true,
          "internalType": "address",
          "name": "to",
          "type": "address"
        },
        {
          "indexed": true,
          "internalType": "uint256",
          "name": "tokenId",
          "type": "uint256"
        },
        {
          "indexed": false,
          "internalType": "string",
          "name": "tokenURI",
          "type": "string"
        }
      ],
      "name": "TokenMinted",
      "type": "event"
    },
    {
      "anonymous": false,
      "inputs": [
        {
          "indexed": true,
          "internalType": "address",
          "name": "from",
          "type": "address"
        },
        {
          "indexed": true,
          "internalType": "address",
          "name": "to",
          "type": "address"
        },
        {
          "indexed": true,
          "internalType": "uint256",
          "name": "tokenId",
          "type": "uint256"
        }
      ],
      "name": "Transfer",
      "type": "event"
    },
    {
      "inputs": [
        {
          "internalType": "address",
          "name": "to",
          "type": "address"
        },
        {
          "internalType": "uint256",
          "name": "tokenId",
          "type": "uint256"
        }
      ],
      "name": "approve",
      "outputs": [],
      "stateMutability": "nonpayable",
      "type": "function"
    },
    {
      "inputs": [
        {
          "internalType": "address",
          "name": "owner",
          "type": "address"
        }
      ],
      "name": "balanceOf",
      "outputs": [
        {
          "internalType": "uint256",
          "name": "",
          "type": "uint256"
        }
      ],
      "stateMutability": "view",
      "type": "function"
    },
    {
      "inputs": [
        {
          "internalType": "uint256",
          "name": "newMintFee",
          "type": "uint256"
        }
      ],
      "name": "changeMintFee",
      "outputs": [],
      "stateMutability": "nonpayable",
      "type": "function"
    },
    {
      "inputs": [
        {
          "internalType": "uint256",
          "name": "tokenId",
          "type": "uint256"
        }
      ],
      "name": "getApproved",
      "outputs": [
        {
          "internalType": "address",
          "name": "",
          "type": "address"
        }
      ],
      "stateMutability": "view",
      "type": "function"
    },
    {
      "inputs": [],
      "name": "getMintFee",
      "outputs": [
        {
          "internalType": "uint256",
          "name": "",
          "type": "uint256"
        }
      ],
      "stateMutability": "view",
      "type": "function"
    },
    {
      "inputs": [],
      "name": "gettokenId",
      "outputs": [
        {
          "internalType": "uint256",
          "name": "",
          "type": "uint256"
        }
      ],
      "stateMutability": "view",
      "type": "function"
    },
    {
      "inputs": [
        {
          "internalType": "address",
          "name": "owner",
          "type": "address"
        },
        {
          "internalType": "address",
          "name": "operator",
          "type": "address"
        }
      ],
      "name": "isApprovedForAll",
      "outputs": [
        {
          "internalType": "bool",
          "name": "",
          "type": "bool"
        }
      ],
      "stateMutability": "view",
      "type": "function"
    },
    {
      "inputs": [
        {
          "internalType": "address",
          "name": "_to",
          "type": "address"
        },
        {
          "internalType": "string",
          "name": "_tokenURI",
          "type": "string"
        }
      ],
      "name": "mintNFT",
      "outputs": [],
      "stateMutability": "payable",
      "type": "function"
    },
    {
      "inputs": [],
      "name": "name",
      "outputs": [
        {
          "internalType": "string",
          "name": "",
          "type": "string"
        }
      ],
      "stateMutability": "view",
      "type": "function"
    },
    {
      "inputs": [],
      "name": "owner",
      "outputs": [
        {
          "internalType": "address",
          "name": "",
          "type": "address"
        }
      ],
      "stateMutability": "view",
      "type": "function"
    },
    {
      "inputs": [
        {
          "internalType": "uint256",
          "name": "tokenId",
          "type": "uint256"
        }
      ],
      "name": "ownerOf",
      "outputs": [
        {
          "internalType": "address",
          "name": "",
          "type": "address"
        }
      ],
      "stateMutability": "view",
      "type": "function"
    },
    {
      "inputs": [],
      "name": "renounceOwnership",
      "outputs": [],
      "stateMutability": "nonpayable",
      "type": "function"
    },
    {
      "inputs": [
        {
          "internalType": "address",
          "name": "from",
          "type": "address"
        },
        {
          "internalType": "address",
          "name": "to",
          "type": "address"
        },
        {
          "internalType": "uint256",
          "name": "tokenId",
          "type": "uint256"
        }
      ],
      "name": "safeTransferFrom",
      "outputs": [],
      "stateMutability": "nonpayable",
      "type": "function"
    },
    {
      "inputs": [
        {
          "internalType": "address",
          "name": "from",
          "type": "address"
        },
        {
          "internalType": "address",
          "name": "to",
          "type": "address"
        },
        {
          "internalType": "uint256",
          "name": "tokenId",
          "type": "uint256"
        },
        {
          "internalType": "bytes",
          "name": "data",
          "type": "bytes"
        }
      ],
      "name": "safeTransferFrom",
      "outputs": [],
      "stateMutability": "nonpayable",
      "type": "function"
    },
    {
      "inputs": [
        {
          "internalType": "address",
          "name": "operator",
          "type": "address"
        },
        {
          "internalType": "bool",
          "name": "approved",
          "type": "bool"
        }
      ],
      "name": "setApprovalForAll",
      "outputs": [],
      "stateMutability": "nonpayable",
      "type": "function"
    },
    {
      "inputs": [
        {
          "internalType": "bytes4",
          "name": "interfaceId",
          "type": "bytes4"
        }
      ],
      "name": "supportsInterface",
      "outputs": [
        {
          "internalType": "bool",
          "name": "",
          "type": "bool"
        }
      ],
      "stateMutability": "view",
      "type": "function"
    },
    {
      "inputs": [],
      "name": "symbol",
      "outputs": [
        {
          "internalType": "string",
          "name": "",
          "type": "string"
        }
      ],
      "stateMutability": "view",
      "type": "function"
    },
    {
      "inputs": [
        {
          "internalType": "uint256",
          "name": "tokenId",
          "type": "uint256"
        }
      ],
      "name": "tokenURI",
      "outputs": [
        {
          "internalType": "string",
          "name": "",
          "type": "string"
        }
      ],
      "stateMutability": "view",
      "type": "function"
    },
    {
      "inputs": [
        {
          "internalType": "address",
          "name": "from",
          "type": "address"
        },
        {
          "internalType": "address",
          "name": "to",
          "type": "address"
        },
        {
          "internalType": "uint256",
          "name": "tokenId",
          "type": "uint256"
        }
      ],
      "name": "transferFrom",
      "outputs": [],
      "stateMutability": "nonpayable",
      "type": "function"
    },
    {
      "inputs": [
        {
          "internalType": "address",
          "name": "newOwner",
          "type": "address"
        }
      ],
      "name": "transferOwnership",
      "outputs": [],
      "stateMutability": "nonpayable",
      "type": "function"
    },
    {
      "inputs": [],
      "name": "withdraw",
      "outputs": [],
      "stateMutability": "nonpayable",
      "type": "function"
    }
  ],
  "transactionHash": "0x77bd01231a9de6169993224deb229b8ccf7c2eb662cda790b6a78272f5ec78bf",
  "args": [
    "FileToken",
    "FT"
  ],
  "numDeployments": 1,
  "solcInputHash": "fdfc7cf7cf127aff8d31d5ddce50c8e5",
  "bytecode": "0x60806040523480156200001157600080fd5b50604051620031fa380380620031fa83398181016040528101906200003791906200035e565b33828281600090816200004b91906200062e565b5080600190816200005d91906200062e565b505050600073ffffffffffffffffffffffffffffffffffffffff168173ffffffffffffffffffffffffffffffffffffffff1603620000d55760006040517f1e4fbdf7000000000000000000000000000000000000000000000000000000008152600401620000cc91906200075a565b60405180910390fd5b620000e6816200010560201b60201c565b506000600881905550662386f26fc10000600981905550505062000777565b6000600760009054906101000a900473ffffffffffffffffffffffffffffffffffffffff16905081600760006101000a81548173ffffffffffffffffffffffffffffffffffffffff021916908373ffffffffffffffffffffffffffffffffffffffff1602179055508173ffffffffffffffffffffffffffffffffffffffff168173ffffffffffffffffffffffffffffffffffffffff167f8be0079c531659141344cd1fd0a4f28419497f9722a3daafe3b4186f6b6457e060405160405180910390a35050565b6000604051905090565b600080fd5b600080fd5b600080fd5b600080fd5b6000601f19601f8301169050919050565b7f4e487b7100000000000000000000000000000000000000000000000000000000600052604160045260246000fd5b6200023482620001e9565b810181811067ffffffffffffffff82111715620002565762000255620001fa565b5b80604052505050565b60006200026b620001cb565b905062000279828262000229565b919050565b600067ffffffffffffffff8211156200029c576200029b620001fa565b5b620002a782620001e9565b9050602081019050919050565b60005b83811015620002d4578082015181840152602081019050620002b7565b60008484015250505050565b6000620002f7620002f1846200027e565b6200025f565b905082815260208101848484011115620003165762000315620001e4565b5b62000323848285620002b4565b509392505050565b600082601f830112620003435762000342620001df565b5b815162000355848260208601620002e0565b91505092915050565b60008060408385031215620003785762000377620001d5565b5b600083015167ffffffffffffffff811115620003995762000398620001da565b5b620003a7858286016200032b565b925050602083015167ffffffffffffffff811115620003cb57620003ca620001da565b5b620003d9858286016200032b565b9150509250929050565b600081519050919050565b7f4e487b7100000000000000000000000000000000000000000000000000000000600052602260045260246000fd5b600060028204905060018216806200043657607f821691505b6020821081036200044c576200044b620003ee565b5b50919050565b60008190508160005260206000209050919050565b60006020601f8301049050919050565b600082821b905092915050565b600060088302620004b67fffffffffffffffffffffffffffffffffffffffffffffffffffffffffffffffff8262000477565b620004c2868362000477565b95508019841693508086168417925050509392505050565b6000819050919050565b6000819050919050565b60006200050f620005096200050384620004da565b620004e4565b620004da565b9050919050565b6000819050919050565b6200052b83620004ee565b620005436200053a8262000516565b84845462000484565b825550505050565b600090565b6200055a6200054b565b6200056781848462000520565b505050565b5b818110156200058f576200058360008262000550565b6001810190506200056d565b5050565b601f821115620005de57620005a88162000452565b620005b38462000467565b81016020851015620005c3578190505b620005db620005d28562000467565b8301826200056c565b50505b505050565b600082821c905092915050565b60006200060360001984600802620005e3565b1980831691505092915050565b60006200061e8383620005f0565b9150826002028217905092915050565b6200063982620003e3565b67ffffffffffffffff811115620006555762000654620001fa565b5b6200066182546200041d565b6200066e82828562000593565b600060209050601f831160018114620006a6576000841562000691578287015190505b6200069d858262000610565b8655506200070d565b601f198416620006b68662000452565b60005b82811015620006e057848901518255600182019150602085019450602081019050620006b9565b86831015620007005784890151620006fc601f891682620005f0565b8355505b6001600288020188555050505b505050505050565b600073ffffffffffffffffffffffffffffffffffffffff82169050919050565b6000620007428262000715565b9050919050565b620007548162000735565b82525050565b600060208201905062000771600083018462000749565b92915050565b612a7380620007876000396000f3fe60806040526004361061012a5760003560e01c80637a5caab3116100ab578063c87b56dd1161006f578063c87b56dd146103ca578063e50590ae14610407578063e929d66914610432578063e985e9c51461045b578063eacabe1414610498578063f2fde38b146104b45761012a565b80637a5caab3146102f75780638da5cb5b1461032257806395d89b411461034d578063a22cb46514610378578063b88d4fde146103a15761012a565b80633ccfd60b116100f25780633ccfd60b1461022657806342842e0e1461023d5780636352211e1461026657806370a08231146102a3578063715018a6146102e05761012a565b806301ffc9a71461012f57806306fdde031461016c578063081812fc14610197578063095ea7b3146101d457806323b872dd146101fd575b600080fd5b34801561013b57600080fd5b5061015660048036038101906101519190611e5c565b6104dd565b6040516101639190611ea4565b60405180910390f35b34801561017857600080fd5b5061018161053e565b60405161018e9190611f4f565b60405180910390f35b3480156101a357600080fd5b506101be60048036038101906101b99190611fa7565b6105d0565b6040516101cb9190612015565b60405180910390f35b3480156101e057600080fd5b506101fb60048036038101906101f6919061205c565b6105ec565b005b34801561020957600080fd5b50610224600480360381019061021f919061209c565b610602565b005b34801561023257600080fd5b5061023b610704565b005b34801561024957600080fd5b50610264600480360381019061025f919061209c565b6107f3565b005b34801561027257600080fd5b5061028d60048036038101906102889190611fa7565b610813565b60405161029a9190612015565b60405180910390f35b3480156102af57600080fd5b506102ca60048036038101906102c591906120ef565b610825565b6040516102d7919061212b565b60405180910390f35b3480156102ec57600080fd5b506102f56108df565b005b34801561030357600080fd5b5061030c6108f3565b604051610319919061212b565b60405180910390f35b34801561032e57600080fd5b506103376108fd565b6040516103449190612015565b60405180910390f35b34801561035957600080fd5b50610362610927565b60405161036f9190611f4f565b60405180910390f35b34801561038457600080fd5b5061039f600480360381019061039a9190612172565b6109b9565b005b3480156103ad57600080fd5b506103c860048036038101906103c391906122e7565b6109cf565b005b3480156103d657600080fd5b506103f160048036038101906103ec9190611fa7565b6109ec565b6040516103fe9190611f4f565b60405180910390f35b34801561041357600080fd5b5061041c610aff565b604051610429919061212b565b60405180910390f35b34801561043e57600080fd5b5061045960048036038101906104549190611fa7565b610b09565b005b34801561046757600080fd5b50610482600480360381019061047d919061236a565b610b97565b60405161048f9190611ea4565b60405180910390f35b6104b260048036038101906104ad919061244b565b610c2b565b005b3480156104c057600080fd5b506104db60048036038101906104d691906120ef565b610cfb565b005b6000634906490660e01b7bffffffffffffffffffffffffffffffffffffffffffffffffffffffff1916827bffffffffffffffffffffffffffffffffffffffffffffffffffffffff19161480610537575061053682610d81565b5b9050919050565b60606000805461054d906124d6565b80601f0160208091040260200160405190810160405280929190818152602001828054610579906124d6565b80156105c65780601f1061059b576101008083540402835291602001916105c6565b820191906000526020600020905b8154815290600101906020018083116105a957829003601f168201915b5050505050905090565b60006105db82610e63565b506105e582610eeb565b9050919050565b6105fe82826105f9610f28565b610f30565b5050565b600073ffffffffffffffffffffffffffffffffffffffff168273ffffffffffffffffffffffffffffffffffffffff16036106745760006040517f64a0ae9200000000000000000000000000000000000000000000000000000000815260040161066b9190612015565b60405180910390fd5b60006106888383610683610f28565b610f42565b90508373ffffffffffffffffffffffffffffffffffffffff168173ffffffffffffffffffffffffffffffffffffffff16146106fe578382826040517f64283d7b0000000000000000000000000000000000000000000000000000000081526004016106f593929190612507565b60405180910390fd5b50505050565b61070c61115c565b60004703610746576040517f9c2891f200000000000000000000000000000000000000000000000000000000815260040160405180910390fd5b60006107506108fd565b73ffffffffffffffffffffffffffffffffffffffff16476040516107739061256f565b60006040518083038185875af1925050503d80600081146107b0576040519150601f19603f3d011682016040523d82523d6000602084013e6107b5565b606091505b50509050806107f0576040517f6c6a117900000000000000000000000000000000000000000000000000000000815260040160405180910390fd5b50565b61080e838383604051806020016040528060008152506109cf565b505050565b600061081e82610e63565b9050919050565b60008073ffffffffffffffffffffffffffffffffffffffff168273ffffffffffffffffffffffffffffffffffffffff16036108985760006040517f89c62b6400000000000000000000000000000000000000000000000000000000815260040161088f9190612015565b60405180910390fd5b600360008373ffffffffffffffffffffffffffffffffffffffff1673ffffffffffffffffffffffffffffffffffffffff168152602001908152602001600020549050919050565b6108e761115c565b6108f160006111e3565b565b6000600954905090565b6000600760009054906101000a900473ffffffffffffffffffffffffffffffffffffffff16905090565b606060018054610936906124d6565b80601f0160208091040260200160405190810160405280929190818152602001828054610962906124d6565b80156109af5780601f10610984576101008083540402835291602001916109af565b820191906000526020600020905b81548152906001019060200180831161099257829003601f168201915b5050505050905090565b6109cb6109c4610f28565b83836112a9565b5050565b6109da848484610602565b6109e684848484611418565b50505050565b60606109f782610e63565b506000600660008481526020019081526020016000208054610a18906124d6565b80601f0160208091040260200160405190810160405280929190818152602001828054610a44906124d6565b8015610a915780601f10610a6657610100808354040283529160200191610a91565b820191906000526020600020905b815481529060010190602001808311610a7457829003601f168201915b505050505090506000610aa26115cf565b90506000815103610ab7578192505050610afa565b600082511115610aec578082604051602001610ad49291906125c0565b60405160208183030381529060405292505050610afa565b610af5846115e6565b925050505b919050565b6000600854905090565b610b1161115c565b60008111610b5657806040517fff76dc15000000000000000000000000000000000000000000000000000000008152600401610b4d919061212b565b60405180910390fd5b806009819055507fe427e272b122e738fd867ac5defcedb2bc9362341166a49d793d8b230f75670c81604051610b8c919061212b565b60405180910390a150565b6000600560008473ffffffffffffffffffffffffffffffffffffffff1673ffffffffffffffffffffffffffffffffffffffff16815260200190815260200160002060008373ffffffffffffffffffffffffffffffffffffffff1673ffffffffffffffffffffffffffffffffffffffff16815260200190815260200160002060009054906101000a900460ff16905092915050565b600954341015610c7657600954346040517f9f7b1624000000000000000000000000000000000000000000000000000000008152600401610c6d9291906125e4565b60405180910390fd5b610c828260085461164f565b610c8e6008548261166d565b6008548273ffffffffffffffffffffffffffffffffffffffff167fdf92894dc4675a7333caa5903b69cf5d8e8ec0d3f361c88207b6688e525703bb83604051610cd79190611f4f565b60405180910390a360086000815480929190610cf29061263c565b91905055505050565b610d0361115c565b600073ffffffffffffffffffffffffffffffffffffffff168173ffffffffffffffffffffffffffffffffffffffff1603610d755760006040517f1e4fbdf7000000000000000000000000000000000000000000000000000000008152600401610d6c9190612015565b60405180910390fd5b610d7e816111e3565b50565b60007f80ac58cd000000000000000000000000000000000000000000000000000000007bffffffffffffffffffffffffffffffffffffffffffffffffffffffff1916827bffffffffffffffffffffffffffffffffffffffffffffffffffffffff19161480610e4c57507f5b5e139f000000000000000000000000000000000000000000000000000000007bffffffffffffffffffffffffffffffffffffffffffffffffffffffff1916827bffffffffffffffffffffffffffffffffffffffffffffffffffffffff1916145b80610e5c5750610e5b826116c9565b5b9050919050565b600080610e6f83611733565b9050600073ffffffffffffffffffffffffffffffffffffffff168173ffffffffffffffffffffffffffffffffffffffff1603610ee257826040517f7e273289000000000000000000000000000000000000000000000000000000008152600401610ed9919061212b565b60405180910390fd5b80915050919050565b60006004600083815260200190815260200160002060009054906101000a900473ffffffffffffffffffffffffffffffffffffffff169050919050565b600033905090565b610f3d8383836001611770565b505050565b600080610f4e84611733565b9050600073ffffffffffffffffffffffffffffffffffffffff168373ffffffffffffffffffffffffffffffffffffffff1614610f9057610f8f818486611935565b5b600073ffffffffffffffffffffffffffffffffffffffff168173ffffffffffffffffffffffffffffffffffffffff161461102157610fd2600085600080611770565b6001600360008373ffffffffffffffffffffffffffffffffffffffff1673ffffffffffffffffffffffffffffffffffffffff168152602001908152602001600020600082825403925050819055505b600073ffffffffffffffffffffffffffffffffffffffff168573ffffffffffffffffffffffffffffffffffffffff16146110a4576001600360008773ffffffffffffffffffffffffffffffffffffffff1673ffffffffffffffffffffffffffffffffffffffff168152602001908152602001600020600082825401925050819055505b846002600086815260200190815260200160002060006101000a81548173ffffffffffffffffffffffffffffffffffffffff021916908373ffffffffffffffffffffffffffffffffffffffff160217905550838573ffffffffffffffffffffffffffffffffffffffff168273ffffffffffffffffffffffffffffffffffffffff167fddf252ad1be2c89b69c2b068fc378daa952ba7f163c4a11628f55a4df523b3ef60405160405180910390a4809150509392505050565b611164610f28565b73ffffffffffffffffffffffffffffffffffffffff166111826108fd565b73ffffffffffffffffffffffffffffffffffffffff16146111e1576111a5610f28565b6040517f118cdaa70000000000000000000000000000000000000000000000000000000081526004016111d89190612015565b60405180910390fd5b565b6000600760009054906101000a900473ffffffffffffffffffffffffffffffffffffffff16905081600760006101000a81548173ffffffffffffffffffffffffffffffffffffffff021916908373ffffffffffffffffffffffffffffffffffffffff1602179055508173ffffffffffffffffffffffffffffffffffffffff168173ffffffffffffffffffffffffffffffffffffffff167f8be0079c531659141344cd1fd0a4f28419497f9722a3daafe3b4186f6b6457e060405160405180910390a35050565b600073ffffffffffffffffffffffffffffffffffffffff168273ffffffffffffffffffffffffffffffffffffffff160361131a57816040517f5b08ba180000000000000000000000000000000000000000000000000000000081526004016113119190612015565b60405180910390fd5b80600560008573ffffffffffffffffffffffffffffffffffffffff1673ffffffffffffffffffffffffffffffffffffffff16815260200190815260200160002060008473ffffffffffffffffffffffffffffffffffffffff1673ffffffffffffffffffffffffffffffffffffffff16815260200190815260200160002060006101000a81548160ff0219169083151502179055508173ffffffffffffffffffffffffffffffffffffffff168373ffffffffffffffffffffffffffffffffffffffff167f17307eab39ab6107e8899845ad3d59bd9653f200f220920489ca2b5937696c318360405161140b9190611ea4565b60405180910390a3505050565b60008373ffffffffffffffffffffffffffffffffffffffff163b11156115c9578273ffffffffffffffffffffffffffffffffffffffff1663150b7a0261145c610f28565b8685856040518563ffffffff1660e01b815260040161147e94939291906126d9565b6020604051808303816000875af19250505080156114ba57506040513d601f19601f820116820180604052508101906114b7919061273a565b60015b61153e573d80600081146114ea576040519150601f19603f3d011682016040523d82523d6000602084013e6114ef565b606091505b50600081510361153657836040517f64a0ae9200000000000000000000000000000000000000000000000000000000815260040161152d9190612015565b60405180910390fd5b805181602001fd5b63150b7a0260e01b7bffffffffffffffffffffffffffffffffffffffffffffffffffffffff1916817bffffffffffffffffffffffffffffffffffffffffffffffffffffffff1916146115c757836040517f64a0ae920000000000000000000000000000000000000000000000000000000081526004016115be9190612015565b60405180910390fd5b505b50505050565b606060405180602001604052806000815250905090565b60606115f182610e63565b5060006115fc6115cf565b9050600081511161161c5760405180602001604052806000815250611647565b80611626846119f9565b6040516020016116379291906125c0565b6040516020818303038152906040525b915050919050565b611669828260405180602001604052806000815250611ac7565b5050565b8060066000848152602001908152602001600020908161168d9190612913565b507ff8e1a15aba9398e019f0b49df1a4fde98ee17ae345cb5f6b5e2c27f5033e8ce7826040516116bd919061212b565b60405180910390a15050565b60007f01ffc9a7000000000000000000000000000000000000000000000000000000007bffffffffffffffffffffffffffffffffffffffffffffffffffffffff1916827bffffffffffffffffffffffffffffffffffffffffffffffffffffffff1916149050919050565b60006002600083815260200190815260200160002060009054906101000a900473ffffffffffffffffffffffffffffffffffffffff169050919050565b80806117a95750600073ffffffffffffffffffffffffffffffffffffffff168273ffffffffffffffffffffffffffffffffffffffff1614155b156118dd5760006117b984610e63565b9050600073ffffffffffffffffffffffffffffffffffffffff168373ffffffffffffffffffffffffffffffffffffffff161415801561182457508273ffffffffffffffffffffffffffffffffffffffff168173ffffffffffffffffffffffffffffffffffffffff1614155b801561183757506118358184610b97565b155b1561187957826040517fa9fbf51f0000000000000000000000000000000000000000000000000000000081526004016118709190612015565b60405180910390fd5b81156118db57838573ffffffffffffffffffffffffffffffffffffffff168273ffffffffffffffffffffffffffffffffffffffff167f8c5be1e5ebec7d5bd14f71427d1e84f3dd0314c0f7b2291e5b200ac8c7c3b92560405160405180910390a45b505b836004600085815260200190815260200160002060006101000a81548173ffffffffffffffffffffffffffffffffffffffff021916908373ffffffffffffffffffffffffffffffffffffffff16021790555050505050565b611940838383611ae3565b6119f457600073ffffffffffffffffffffffffffffffffffffffff168373ffffffffffffffffffffffffffffffffffffffff16036119b557806040517f7e2732890000000000000000000000000000000000000000000000000000000081526004016119ac919061212b565b60405180910390fd5b81816040517f177e802f0000000000000000000000000000000000000000000000000000000081526004016119eb9291906129e5565b60405180910390fd5b505050565b606060006001611a0884611ba4565b01905060008167ffffffffffffffff811115611a2757611a266121bc565b5b6040519080825280601f01601f191660200182016040528015611a595781602001600182028036833780820191505090505b509050600082602001820190505b600115611abc578080600190039150507f3031323334353637383961626364656600000000000000000000000000000000600a86061a8153600a8581611ab057611aaf612a0e565b5b04945060008503611a67575b819350505050919050565b611ad18383611cf7565b611ade6000848484611418565b505050565b60008073ffffffffffffffffffffffffffffffffffffffff168373ffffffffffffffffffffffffffffffffffffffff1614158015611b9b57508273ffffffffffffffffffffffffffffffffffffffff168473ffffffffffffffffffffffffffffffffffffffff161480611b5c5750611b5b8484610b97565b5b80611b9a57508273ffffffffffffffffffffffffffffffffffffffff16611b8283610eeb565b73ffffffffffffffffffffffffffffffffffffffff16145b5b90509392505050565b600080600090507a184f03e93ff9f4daa797ed6e38ed64bf6a1f0100000000000000008310611c02577a184f03e93ff9f4daa797ed6e38ed64bf6a1f0100000000000000008381611bf857611bf7612a0e565b5b0492506040810190505b6d04ee2d6d415b85acef81000000008310611c3f576d04ee2d6d415b85acef81000000008381611c3557611c34612a0e565b5b0492506020810190505b662386f26fc100008310611c6e57662386f26fc100008381611c6457611c63612a0e565b5b0492506010810190505b6305f5e1008310611c97576305f5e1008381611c8d57611c8c612a0e565b5b0492506008810190505b6127108310611cbc576127108381611cb257611cb1612a0e565b5b0492506004810190505b60648310611cdf5760648381611cd557611cd4612a0e565b5b0492506002810190505b600a8310611cee576001810190505b80915050919050565b600073ffffffffffffffffffffffffffffffffffffffff168273ffffffffffffffffffffffffffffffffffffffff1603611d695760006040517f64a0ae92000000000000000000000000000000000000000000000000000000008152600401611d609190612015565b60405180910390fd5b6000611d7783836000610f42565b9050600073ffffffffffffffffffffffffffffffffffffffff168173ffffffffffffffffffffffffffffffffffffffff1614611deb5760006040517f73c6ac6e000000000000000000000000000000000000000000000000000000008152600401611de29190612015565b60405180910390fd5b505050565b6000604051905090565b600080fd5b600080fd5b60007fffffffff0000000000000000000000000000000000000000000000000000000082169050919050565b611e3981611e04565b8114611e4457600080fd5b50565b600081359050611e5681611e30565b92915050565b600060208284031215611e7257611e71611dfa565b5b6000611e8084828501611e47565b91505092915050565b60008115159050919050565b611e9e81611e89565b82525050565b6000602082019050611eb96000830184611e95565b92915050565b600081519050919050565b600082825260208201905092915050565b60005b83811015611ef9578082015181840152602081019050611ede565b60008484015250505050565b6000601f19601f8301169050919050565b6000611f2182611ebf565b611f2b8185611eca565b9350611f3b818560208601611edb565b611f4481611f05565b840191505092915050565b60006020820190508181036000830152611f698184611f16565b905092915050565b6000819050919050565b611f8481611f71565b8114611f8f57600080fd5b50565b600081359050611fa181611f7b565b92915050565b600060208284031215611fbd57611fbc611dfa565b5b6000611fcb84828501611f92565b91505092915050565b600073ffffffffffffffffffffffffffffffffffffffff82169050919050565b6000611fff82611fd4565b9050919050565b61200f81611ff4565b82525050565b600060208201905061202a6000830184612006565b92915050565b61203981611ff4565b811461204457600080fd5b50565b60008135905061205681612030565b92915050565b6000806040838503121561207357612072611dfa565b5b600061208185828601612047565b925050602061209285828601611f92565b9150509250929050565b6000806000606084860312156120b5576120b4611dfa565b5b60006120c386828701612047565b93505060206120d486828701612047565b92505060406120e586828701611f92565b9150509250925092565b60006020828403121561210557612104611dfa565b5b600061211384828501612047565b91505092915050565b61212581611f71565b82525050565b6000602082019050612140600083018461211c565b92915050565b61214f81611e89565b811461215a57600080fd5b50565b60008135905061216c81612146565b92915050565b6000806040838503121561218957612188611dfa565b5b600061219785828601612047565b92505060206121a88582860161215d565b9150509250929050565b600080fd5b600080fd5b7f4e487b7100000000000000000000000000000000000000000000000000000000600052604160045260246000fd5b6121f482611f05565b810181811067ffffffffffffffff82111715612213576122126121bc565b5b80604052505050565b6000612226611df0565b905061223282826121eb565b919050565b600067ffffffffffffffff821115612252576122516121bc565b5b61225b82611f05565b9050602081019050919050565b82818337600083830152505050565b600061228a61228584612237565b61221c565b9050828152602081018484840111156122a6576122a56121b7565b5b6122b1848285612268565b509392505050565b600082601f8301126122ce576122cd6121b2565b5b81356122de848260208601612277565b91505092915050565b6000806000806080858703121561230157612300611dfa565b5b600061230f87828801612047565b945050602061232087828801612047565b935050604061233187828801611f92565b925050606085013567ffffffffffffffff81111561235257612351611dff565b5b61235e878288016122b9565b91505092959194509250565b6000806040838503121561238157612380611dfa565b5b600061238f85828601612047565b92505060206123a085828601612047565b9150509250929050565b600067ffffffffffffffff8211156123c5576123c46121bc565b5b6123ce82611f05565b9050602081019050919050565b60006123ee6123e9846123aa565b61221c565b90508281526020810184848401111561240a576124096121b7565b5b612415848285612268565b509392505050565b600082601f830112612432576124316121b2565b5b81356124428482602086016123db565b91505092915050565b6000806040838503121561246257612461611dfa565b5b600061247085828601612047565b925050602083013567ffffffffffffffff81111561249157612490611dff565b5b61249d8582860161241d565b9150509250929050565b7f4e487b7100000000000000000000000000000000000000000000000000000000600052602260045260246000fd5b600060028204905060018216806124ee57607f821691505b602082108103612501576125006124a7565b5b50919050565b600060608201905061251c6000830186612006565b612529602083018561211c565b6125366040830184612006565b949350505050565b600081905092915050565b50565b600061255960008361253e565b915061256482612549565b600082019050919050565b600061257a8261254c565b9150819050919050565b600081905092915050565b600061259a82611ebf565b6125a48185612584565b93506125b4818560208601611edb565b80840191505092915050565b60006125cc828561258f565b91506125d8828461258f565b91508190509392505050565b60006040820190506125f9600083018561211c565b612606602083018461211c565b9392505050565b7f4e487b7100000000000000000000000000000000000000000000000000000000600052601160045260246000fd5b600061264782611f71565b91507fffffffffffffffffffffffffffffffffffffffffffffffffffffffffffffffff82036126795761267861260d565b5b600182019050919050565b600081519050919050565b600082825260208201905092915050565b60006126ab82612684565b6126b5818561268f565b93506126c5818560208601611edb565b6126ce81611f05565b840191505092915050565b60006080820190506126ee6000830187612006565b6126fb6020830186612006565b612708604083018561211c565b818103606083015261271a81846126a0565b905095945050505050565b60008151905061273481611e30565b92915050565b6000602082840312156127505761274f611dfa565b5b600061275e84828501612725565b91505092915050565b60008190508160005260206000209050919050565b60006020601f8301049050919050565b600082821b905092915050565b6000600883026127c97fffffffffffffffffffffffffffffffffffffffffffffffffffffffffffffffff8261278c565b6127d3868361278c565b95508019841693508086168417925050509392505050565b6000819050919050565b600061281061280b61280684611f71565b6127eb565b611f71565b9050919050565b6000819050919050565b61282a836127f5565b61283e61283682612817565b848454612799565b825550505050565b600090565b612853612846565b61285e818484612821565b505050565b5b818110156128825761287760008261284b565b600181019050612864565b5050565b601f8211156128c75761289881612767565b6128a18461277c565b810160208510156128b0578190505b6128c46128bc8561277c565b830182612863565b50505b505050565b600082821c905092915050565b60006128ea600019846008026128cc565b1980831691505092915050565b600061290383836128d9565b9150826002028217905092915050565b61291c82611ebf565b67ffffffffffffffff811115612935576129346121bc565b5b61293f82546124d6565b61294a828285612886565b600060209050601f83116001811461297d576000841561296b578287015190505b61297585826128f7565b8655506129dd565b601f19841661298b86612767565b60005b828110156129b35784890151825560018201915060208501945060208101905061298e565b868310156129d057848901516129cc601f8916826128d9565b8355505b6001600288020188555050505b505050505050565b60006040820190506129fa6000830185612006565b612a07602083018461211c565b9392505050565b7f4e487b7100000000000000000000000000000000000000000000000000000000600052601260045260246000fdfea264697066735822122051f1dc08b43774fcbd0d55ba0e99cbf7d2d37af94cb64a19f83c577504ef8f7964736f6c63430008180033",
  "devdoc": {
    "errors": {
      "ERC721IncorrectOwner(address,uint256,address)": [
        {
          "details": "Indicates an error related to the ownership over a particular token. Used in transfers.",
          "params": {
            "owner": "Address of the current owner of a token.",
            "sender": "Address whose tokens are being transferred.",
            "tokenId": "Identifier number of a token."
          }
        }
      ],
      "ERC721InsufficientApproval(address,uint256)": [
        {
          "details": "Indicates a failure with the `operator`s approval. Used in transfers.",
          "params": {
            "operator": "Address that may be allowed to operate on tokens without being their owner.",
            "tokenId": "Identifier number of a token."
          }
        }
      ],
      "ERC721InvalidApprover(address)": [
        {
          "details": "Indicates a failure with the `approver` of a token to be approved. Used in approvals.",
          "params": {
            "approver": "Address initiating an approval operation."
          }
        }
      ],
      "ERC721InvalidOperator(address)": [
        {
          "details": "Indicates a failure with the `operator` to be approved. Used in approvals.",
          "params": {
            "operator": "Address that may be allowed to operate on tokens without being their owner."
          }
        }
      ],
      "ERC721InvalidOwner(address)": [
        {
          "details": "Indicates that an address can't be an owner. For example, `address(0)` is a forbidden owner in EIP-20. Used in balance queries.",
          "params": {
            "owner": "Address of the current owner of a token."
          }
        }
      ],
      "ERC721InvalidReceiver(address)": [
        {
          "details": "Indicates a failure with the token `receiver`. Used in transfers.",
          "params": {
            "receiver": "Address to which tokens are being transferred."
          }
        }
      ],
      "ERC721InvalidSender(address)": [
        {
          "details": "Indicates a failure with the token `sender`. Used in transfers.",
          "params": {
            "sender": "Address whose tokens are being transferred."
          }
        }
      ],
      "ERC721NonexistentToken(uint256)": [
        {
          "details": "Indicates a `tokenId` whose `owner` is the zero address.",
          "params": {
            "tokenId": "Identifier number of a token."
          }
        }
      ],
      "OwnableInvalidOwner(address)": [
        {
          "details": "The owner is not a valid owner account. (eg. `address(0)`)"
        }
      ],
      "OwnableUnauthorizedAccount(address)": [
        {
          "details": "The caller account is not authorized to perform an operation."
        }
      ]
    },
    "events": {
      "Approval(address,address,uint256)": {
        "details": "Emitted when `owner` enables `approved` to manage the `tokenId` token."
      },
      "ApprovalForAll(address,address,bool)": {
        "details": "Emitted when `owner` enables or disables (`approved`) `operator` to manage all of its assets."
      },
      "BatchMetadataUpdate(uint256,uint256)": {
        "details": "This event emits when the metadata of a range of tokens is changed. So that the third-party platforms such as NFT market could timely update the images and related attributes of the NFTs."
      },
      "MetadataUpdate(uint256)": {
        "details": "This event emits when the metadata of a token is changed. So that the third-party platforms such as NFT market could timely update the images and related attributes of the NFT."
      },
      "Transfer(address,address,uint256)": {
        "details": "Emitted when `tokenId` token is transferred from `from` to `to`."
      }
    },
    "kind": "dev",
    "methods": {
      "approve(address,uint256)": {
        "details": "See {IERC721-approve}."
      },
      "balanceOf(address)": {
        "details": "See {IERC721-balanceOf}."
      },
      "getApproved(uint256)": {
        "details": "See {IERC721-getApproved}."
      },
      "isApprovedForAll(address,address)": {
        "details": "See {IERC721-isApprovedForAll}."
      },
      "name()": {
        "details": "See {IERC721Metadata-name}."
      },
      "owner()": {
        "details": "Returns the address of the current owner."
      },
      "ownerOf(uint256)": {
        "details": "See {IERC721-ownerOf}."
      },
      "renounceOwnership()": {
        "details": "Leaves the contract without owner. It will not be possible to call `onlyOwner` functions. Can only be called by the current owner. NOTE: Renouncing ownership will leave the contract without an owner, thereby disabling any functionality that is only available to the owner."
      },
      "safeTransferFrom(address,address,uint256)": {
        "details": "See {IERC721-safeTransferFrom}."
      },
      "safeTransferFrom(address,address,uint256,bytes)": {
        "details": "See {IERC721-safeTransferFrom}."
      },
      "setApprovalForAll(address,bool)": {
        "details": "See {IERC721-setApprovalForAll}."
      },
      "supportsInterface(bytes4)": {
        "details": "See {IERC165-supportsInterface}"
      },
      "symbol()": {
        "details": "See {IERC721Metadata-symbol}."
      },
      "tokenURI(uint256)": {
        "details": "See {IERC721Metadata-tokenURI}."
      },
      "transferFrom(address,address,uint256)": {
        "details": "See {IERC721-transferFrom}."
      },
      "transferOwnership(address)": {
        "details": "Transfers ownership of the contract to a new account (`newOwner`). Can only be called by the current owner."
      }
    },
    "version": 1
  },
  "userdoc": {
    "kind": "user",
    "methods": {},
    "version": 1
  },
  "storageLayout": {
    "storage": [
      {
        "astId": 349,
        "contract": "contracts/FileToken.sol:FileToken",
        "label": "_name",
        "offset": 0,
        "slot": "0",
        "type": "t_string_storage"
      },
      {
        "astId": 351,
        "contract": "contracts/FileToken.sol:FileToken",
        "label": "_symbol",
        "offset": 0,
        "slot": "1",
        "type": "t_string_storage"
      },
      {
        "astId": 355,
        "contract": "contracts/FileToken.sol:FileToken",
        "label": "_owners",
        "offset": 0,
        "slot": "2",
        "type": "t_mapping(t_uint256,t_address)"
      },
      {
        "astId": 359,
        "contract": "contracts/FileToken.sol:FileToken",
        "label": "_balances",
        "offset": 0,
        "slot": "3",
        "type": "t_mapping(t_address,t_uint256)"
      },
      {
        "astId": 363,
        "contract": "contracts/FileToken.sol:FileToken",
        "label": "_tokenApprovals",
        "offset": 0,
        "slot": "4",
        "type": "t_mapping(t_uint256,t_address)"
      },
      {
        "astId": 369,
        "contract": "contracts/FileToken.sol:FileToken",
        "label": "_operatorApprovals",
        "offset": 0,
        "slot": "5",
        "type": "t_mapping(t_address,t_mapping(t_address,t_bool))"
      },
      {
        "astId": 1488,
        "contract": "contracts/FileToken.sol:FileToken",
        "label": "_tokenURIs",
        "offset": 0,
        "slot": "6",
        "type": "t_mapping(t_uint256,t_string_storage)"
      },
      {
        "astId": 8,
        "contract": "contracts/FileToken.sol:FileToken",
        "label": "_owner",
        "offset": 0,
        "slot": "7",
        "type": "t_address"
      },
      {
        "astId": 3130,
        "contract": "contracts/FileToken.sol:FileToken",
        "label": "tokenId",
        "offset": 0,
        "slot": "8",
        "type": "t_uint256"
      },
      {
        "astId": 3132,
        "contract": "contracts/FileToken.sol:FileToken",
        "label": "mintFee",
        "offset": 0,
        "slot": "9",
        "type": "t_uint256"
      }
    ],
    "types": {
      "t_address": {
        "encoding": "inplace",
        "label": "address",
        "numberOfBytes": "20"
      },
      "t_bool": {
        "encoding": "inplace",
        "label": "bool",
        "numberOfBytes": "1"
      },
      "t_mapping(t_address,t_bool)": {
        "encoding": "mapping",
        "key": "t_address",
        "label": "mapping(address => bool)",
        "numberOfBytes": "32",
        "value": "t_bool"
      },
      "t_mapping(t_address,t_mapping(t_address,t_bool))": {
        "encoding": "mapping",
        "key": "t_address",
        "label": "mapping(address => mapping(address => bool))",
        "numberOfBytes": "32",
        "value": "t_mapping(t_address,t_bool)"
      },
      "t_mapping(t_address,t_uint256)": {
        "encoding": "mapping",
        "key": "t_address",
        "label": "mapping(address => uint256)",
        "numberOfBytes": "32",
        "value": "t_uint256"
      },
      "t_mapping(t_uint256,t_address)": {
        "encoding": "mapping",
        "key": "t_uint256",
        "label": "mapping(uint256 => address)",
        "numberOfBytes": "32",
        "value": "t_address"
      },
      "t_mapping(t_uint256,t_string_storage)": {
        "encoding": "mapping",
        "key": "t_uint256",
        "label": "mapping(uint256 => string)",
        "numberOfBytes": "32",
        "value": "t_string_storage"
      },
      "t_string_storage": {
        "encoding": "bytes",
        "label": "string",
        "numberOfBytes": "32"
      },
      "t_uint256": {
        "encoding": "inplace",
        "label": "uint256",
        "numberOfBytes": "32"
      }
    }
  }
}