{
  "address": "0xf8206f27694Ca16dCE8f9b6A3E6B30ab0cb27198",
  "abi": [
    {
      "inputs": [
        {
          "internalType": "uint256",
          "name": "_commissionFee",
          "type": "uint256"
        }
      ],
      "stateMutability": "nonpayable",
      "type": "constructor"
    },
    {
      "inputs": [],
      "name": "FileMarketplace__BoughtFailed",
      "type": "error"
    },
    {
      "inputs": [],
      "name": "FileMarketplace__FileTokenAlreadyListed",
      "type": "error"
    },
    {
      "inputs": [],
      "name": "FileMarketplace__FileTokenNotListed",
      "type": "error"
    },
    {
      "inputs": [
        {
          "internalType": "uint256",
          "name": "newCommissionFee",
          "type": "uint256"
        }
      ],
      "name": "FileMarketplace__InvalidCommissionFee",
      "type": "error"
    },
    {
      "inputs": [],
      "name": "FileMarketplace__ListFailed",
      "type": "error"
    },
    {
      "inputs": [],
      "name": "FileMarketplace__NoProceedsForWithdraw",
      "type": "error"
    },
    {
      "inputs": [
        {
          "internalType": "uint256",
          "name": "fee",
          "type": "uint256"
        },
        {
          "internalType": "uint256",
          "name": "price",
          "type": "uint256"
        }
      ],
      "name": "FileMarketplace__NotEnoughFee",
      "type": "error"
    },
    {
      "inputs": [
        {
          "internalType": "address",
          "name": "caller",
          "type": "address"
        },
        {
          "internalType": "address",
          "name": "creator",
          "type": "address"
        }
      ],
      "name": "FileMarketplace__NotFileTokenCreator",
      "type": "error"
    },
    {
      "inputs": [],
      "name": "FileMarketplace__WithdrawFailed",
      "type": "error"
    },
    {
      "inputs": [
        {
          "internalType": "address",
          "name": "owner",
          "type": "address"
        }
      ],
      "name": "OwnableInvalidOwner",
      "type": "error"
    },
    {
      "inputs": [
        {
          "internalType": "address",
          "name": "account",
          "type": "address"
        }
      ],
      "name": "OwnableUnauthorizedAccount",
      "type": "error"
    },
    {
      "inputs": [],
      "name": "ReentrancyGuardReentrantCall",
      "type": "error"
    },
    {
      "anonymous": false,
      "inputs": [
        {
          "indexed": false,
          "internalType": "uint256",
          "name": "newCommissionFee",
          "type": "uint256"
        }
      ],
      "name": "CommissionFeeChanged",
      "type": "event"
    },
    {
      "anonymous": false,
      "inputs": [
        {
          "indexed": true,
          "internalType": "address",
          "name": "fileTokenOwner",
          "type": "address"
        },
        {
          "indexed": false,
          "internalType": "address",
          "name": "fileToken",
          "type": "address"
        },
        {
          "indexed": false,
          "internalType": "string",
          "name": "fileName",
          "type": "string"
        },
        {
          "indexed": false,
          "internalType": "string",
          "name": "fileSymbol",
          "type": "string"
        },
        {
          "indexed": false,
          "internalType": "address",
          "name": "buyer",
          "type": "address"
        }
      ],
      "name": "FileTokenBought",
      "type": "event"
    },
    {
      "anonymous": false,
      "inputs": [
        {
          "indexed": true,
          "internalType": "address",
          "name": "fileTokenOwner",
          "type": "address"
        },
        {
          "indexed": false,
          "internalType": "address",
          "name": "fileToken",
          "type": "address"
        },
        {
          "indexed": false,
          "internalType": "string",
          "name": "fileName",
          "type": "string"
        },
        {
          "indexed": false,
          "internalType": "string",
          "name": "fileSymbol",
          "type": "string"
        },
        {
          "indexed": false,
          "internalType": "uint256",
          "name": "price",
          "type": "uint256"
        }
      ],
      "name": "FileTokenListed",
      "type": "event"
    },
    {
      "anonymous": false,
      "inputs": [
        {
          "indexed": true,
          "internalType": "address",
          "name": "fileTokenOwner",
          "type": "address"
        },
        {
          "indexed": false,
          "internalType": "address",
          "name": "fileToken",
          "type": "address"
        }
      ],
      "name": "FileTokenListingCancelled",
      "type": "event"
    },
    {
      "anonymous": false,
      "inputs": [
        {
          "indexed": false,
          "internalType": "address",
          "name": "newFileMarketplaceOwner",
          "type": "address"
        }
      ],
      "name": "OwnerChanged",
      "type": "event"
    },
    {
      "anonymous": false,
      "inputs": [
        {
          "indexed": true,
          "internalType": "address",
          "name": "previousOwner",
          "type": "address"
        },
        {
          "indexed": true,
          "internalType": "address",
          "name": "newOwner",
          "type": "address"
        }
      ],
      "name": "OwnershipTransferred",
      "type": "event"
    },
    {
      "anonymous": false,
      "inputs": [
        {
          "indexed": false,
          "internalType": "uint256",
          "name": "amount",
          "type": "uint256"
        }
      ],
      "name": "ProceedsWithdrawn",
      "type": "event"
    },
    {
      "stateMutability": "payable",
      "type": "fallback"
    },
    {
      "inputs": [
        {
          "internalType": "address",
          "name": "fileTokenAddress",
          "type": "address"
        }
      ],
      "name": "buyFileToken",
      "outputs": [],
      "stateMutability": "payable",
      "type": "function"
    },
    {
      "inputs": [
        {
          "internalType": "address",
          "name": "fileTokenAddress",
          "type": "address"
        }
      ],
      "name": "cancelListing",
      "outputs": [],
      "stateMutability": "nonpayable",
      "type": "function"
    },
    {
      "inputs": [
        {
          "internalType": "uint256",
          "name": "newCommissionFee",
          "type": "uint256"
        }
      ],
      "name": "changeCommissionFee",
      "outputs": [],
      "stateMutability": "nonpayable",
      "type": "function"
    },
    {
      "inputs": [
        {
          "internalType": "address",
          "name": "newFileMarketplaceOwner",
          "type": "address"
        }
      ],
      "name": "changeOwner",
      "outputs": [],
      "stateMutability": "nonpayable",
      "type": "function"
    },
    {
      "inputs": [],
      "name": "commissionFee",
      "outputs": [
        {
          "internalType": "uint256",
          "name": "",
          "type": "uint256"
        }
      ],
      "stateMutability": "view",
      "type": "function"
    },
    {
      "inputs": [],
      "name": "getCommissionFee",
      "outputs": [
        {
          "internalType": "uint256",
          "name": "",
          "type": "uint256"
        }
      ],
      "stateMutability": "nonpayable",
      "type": "function"
    },
    {
      "inputs": [
        {
          "internalType": "address",
          "name": "fileTokenOwner",
          "type": "address"
        },
        {
          "internalType": "address",
          "name": "fileToken",
          "type": "address"
        }
      ],
      "name": "getListing",
      "outputs": [
        {
          "components": [
            {
              "internalType": "address",
              "name": "fileTokenOwner",
              "type": "address"
            },
            {
              "internalType": "address",
              "name": "fileToken",
              "type": "address"
            },
            {
              "internalType": "string",
              "name": "fileName",
              "type": "string"
            },
            {
              "internalType": "string",
              "name": "fileSymbol",
              "type": "string"
            },
            {
              "internalType": "uint256",
              "name": "price",
              "type": "uint256"
            }
          ],
          "internalType": "struct FileMarketplace.Listing",
          "name": "",
          "type": "tuple"
        }
      ],
      "stateMutability": "view",
      "type": "function"
    },
    {
      "inputs": [
        {
          "internalType": "address",
          "name": "fileTokenAddress",
          "type": "address"
        }
      ],
      "name": "listFileToken",
      "outputs": [],
      "stateMutability": "payable",
      "type": "function"
    },
    {
      "inputs": [],
      "name": "owner",
      "outputs": [
        {
          "internalType": "address",
          "name": "",
          "type": "address"
        }
      ],
      "stateMutability": "view",
      "type": "function"
    },
    {
      "inputs": [],
      "name": "renounceOwnership",
      "outputs": [],
      "stateMutability": "nonpayable",
      "type": "function"
    },
    {
      "inputs": [
        {
          "internalType": "address",
          "name": "newOwner",
          "type": "address"
        }
      ],
      "name": "transferOwnership",
      "outputs": [],
      "stateMutability": "nonpayable",
      "type": "function"
    },
    {
      "inputs": [],
      "name": "withdrawCommissionFee",
      "outputs": [],
      "stateMutability": "payable",
      "type": "function"
    },
    {
      "stateMutability": "payable",
      "type": "receive"
    }
  ],
  "transactionHash": "0xcfed56be7580617bd14017d12274b97c2be1c72c0dc0205abc36d018305913d9",
  "args": [
    "10000000000000000"
  ],
  "numDeployments": 1,
  "solcInputHash": "43ddb0f34ea71c662483765ec2babf02",
  "bytecode": "0x60806040523480156200001157600080fd5b5060405162002aad38038062002aad833981810160405281019062000037919062000219565b33600073ffffffffffffffffffffffffffffffffffffffff168173ffffffffffffffffffffffffffffffffffffffff1603620000ad5760006040517f1e4fbdf7000000000000000000000000000000000000000000000000000000008152600401620000a4919062000290565b60405180910390fd5b620000be816200011560201b60201c565b506001808190555033600260006101000a81548173ffffffffffffffffffffffffffffffffffffffff021916908373ffffffffffffffffffffffffffffffffffffffff1602179055508060038190555050620002ad565b60008060009054906101000a900473ffffffffffffffffffffffffffffffffffffffff169050816000806101000a81548173ffffffffffffffffffffffffffffffffffffffff021916908373ffffffffffffffffffffffffffffffffffffffff1602179055508173ffffffffffffffffffffffffffffffffffffffff168173ffffffffffffffffffffffffffffffffffffffff167f8be0079c531659141344cd1fd0a4f28419497f9722a3daafe3b4186f6b6457e060405160405180910390a35050565b600080fd5b6000819050919050565b620001f381620001de565b8114620001ff57600080fd5b50565b6000815190506200021381620001e8565b92915050565b600060208284031215620002325762000231620001d9565b5b6000620002428482850162000202565b91505092915050565b600073ffffffffffffffffffffffffffffffffffffffff82169050919050565b600062000278826200024b565b9050919050565b6200028a816200026b565b82525050565b6000602082019050620002a760008301846200027f565b92915050565b6127f080620002bd6000396000f3fe6080604052600436106100ab5760003560e01c80638da5cb5b116100645780638da5cb5b1461016e5780639d7d496e14610199578063a6f9dae1146101c4578063b369f6ad146101ed578063b986eaf01461022a578063f2fde38b14610246576100b2565b806307b3acf1146100b45780631cf196df146100be5780634724da6f146100e757806369c27de0146101105780636fb1eb0c1461012c578063715018a614610157576100b2565b366100b257005b005b6100bc61026f565b005b3480156100ca57600080fd5b506100e560048036038101906100e09190611df1565b6103b5565b005b3480156100f357600080fd5b5061010e60048036038101906101099190611e7c565b610444565b005b61012a60048036038101906101259190611e7c565b61084f565b005b34801561013857600080fd5b506101416110cf565b60405161014e9190611eb8565b60405180910390f35b34801561016357600080fd5b5061016c6110d5565b005b34801561017a57600080fd5b506101836110e9565b6040516101909190611ee2565b60405180910390f35b3480156101a557600080fd5b506101ae611112565b6040516101bb9190611eb8565b60405180910390f35b3480156101d057600080fd5b506101eb60048036038101906101e69190611e7c565b61111c565b005b3480156101f957600080fd5b50610214600480360381019061020f9190611efd565b6111a8565b6040516102219190612068565b60405180910390f35b610244600480360381019061023f9190611e7c565b611419565b005b34801561025257600080fd5b5061026d60048036038101906102689190611e7c565b611ac7565b005b610277611b4d565b600047116102b1576040517f4a247baf00000000000000000000000000000000000000000000000000000000815260040160405180910390fd5b60004790506000600260009054906101000a900473ffffffffffffffffffffffffffffffffffffffff1673ffffffffffffffffffffffffffffffffffffffff16826040516102fe906120bb565b60006040518083038185875af1925050503d806000811461033b576040519150601f19603f3d011682016040523d82523d6000602084013e610340565b606091505b505090508061037b576040517f6323686a00000000000000000000000000000000000000000000000000000000815260040160405180910390fd5b7e85f56592462784083e828817207817f9a8413860eb3c60e01ba90ce6f925d9826040516103a99190611eb8565b60405180910390a15050565b6103bd611b4d565b600081101561040357806040517fc6750bbc0000000000000000000000000000000000000000000000000000000081526004016103fa9190611eb8565b60405180910390fd5b806003819055507facf4d78b53f9d63cbd76ccae2aa87cc5fb45ebcb8c9bcd834dbd31b1be0bdafa816040516104399190611eb8565b60405180910390a150565b8073ffffffffffffffffffffffffffffffffffffffff16637710bcfb6040518163ffffffff1660e01b8152600401602060405180830381865afa15801561048f573d6000803e3d6000fd5b505050506040513d601f19601f820116820180604052508101906104b391906120e5565b81600073ffffffffffffffffffffffffffffffffffffffff16600460008473ffffffffffffffffffffffffffffffffffffffff1673ffffffffffffffffffffffffffffffffffffffff16815260200190815260200160002060008373ffffffffffffffffffffffffffffffffffffffff1673ffffffffffffffffffffffffffffffffffffffff16815260200190815260200160002060010160009054906101000a900473ffffffffffffffffffffffffffffffffffffffff1673ffffffffffffffffffffffffffffffffffffffff16036105b9576040517ff9fd269300000000000000000000000000000000000000000000000000000000815260040160405180910390fd5b8273ffffffffffffffffffffffffffffffffffffffff16637710bcfb6040518163ffffffff1660e01b8152600401602060405180830381865afa158015610604573d6000803e3d6000fd5b505050506040513d601f19601f8201168201806040525081019061062891906120e5565b73ffffffffffffffffffffffffffffffffffffffff163373ffffffffffffffffffffffffffffffffffffffff161461070757338373ffffffffffffffffffffffffffffffffffffffff16637710bcfb6040518163ffffffff1660e01b8152600401602060405180830381865afa1580156106a6573d6000803e3d6000fd5b505050506040513d601f19601f820116820180604052508101906106ca91906120e5565b6040517ff68670150000000000000000000000000000000000000000000000000000000081526004016106fe929190612112565b60405180910390fd5b600460003373ffffffffffffffffffffffffffffffffffffffff1673ffffffffffffffffffffffffffffffffffffffff16815260200190815260200160002060008473ffffffffffffffffffffffffffffffffffffffff1673ffffffffffffffffffffffffffffffffffffffff168152602001908152602001600020600080820160006101000a81549073ffffffffffffffffffffffffffffffffffffffff02191690556001820160006101000a81549073ffffffffffffffffffffffffffffffffffffffff02191690556002820160006107e29190611cef565b6003820160006107f29190611cef565b600482016000905550503373ffffffffffffffffffffffffffffffffffffffff167f8eb13a872c0fa17489b7475219eb593e9b14b7a9f8684115ec29253460a6a8ff846040516108429190611ee2565b60405180910390a2505050565b8073ffffffffffffffffffffffffffffffffffffffff16637710bcfb6040518163ffffffff1660e01b8152600401602060405180830381865afa15801561089a573d6000803e3d6000fd5b505050506040513d601f19601f820116820180604052508101906108be91906120e5565b81600073ffffffffffffffffffffffffffffffffffffffff16600460008473ffffffffffffffffffffffffffffffffffffffff1673ffffffffffffffffffffffffffffffffffffffff16815260200190815260200160002060008373ffffffffffffffffffffffffffffffffffffffff1673ffffffffffffffffffffffffffffffffffffffff16815260200190815260200160002060010160009054906101000a900473ffffffffffffffffffffffffffffffffffffffff1673ffffffffffffffffffffffffffffffffffffffff16146109c4576040517f43c971c500000000000000000000000000000000000000000000000000000000815260040160405180910390fd5b6109cc611bd4565b8273ffffffffffffffffffffffffffffffffffffffff16637710bcfb6040518163ffffffff1660e01b8152600401602060405180830381865afa158015610a17573d6000803e3d6000fd5b505050506040513d601f19601f82011682018060405250810190610a3b91906120e5565b73ffffffffffffffffffffffffffffffffffffffff163373ffffffffffffffffffffffffffffffffffffffff1614610b1a57338373ffffffffffffffffffffffffffffffffffffffff16637710bcfb6040518163ffffffff1660e01b8152600401602060405180830381865afa158015610ab9573d6000803e3d6000fd5b505050506040513d601f19601f82011682018060405250810190610add91906120e5565b6040517ff6867015000000000000000000000000000000000000000000000000000000008152600401610b11929190612112565b60405180910390fd5b346003541115610b6557346003546040517ffb6232f6000000000000000000000000000000000000000000000000000000008152600401610b5c92919061213b565b60405180910390fd5b60003073ffffffffffffffffffffffffffffffffffffffff1634604051610b8b906120bb565b60006040518083038185875af1925050503d8060008114610bc8576040519150601f19603f3d011682016040523d82523d6000602084013e610bcd565b606091505b5050905080610c08576040517f60dcb70a00000000000000000000000000000000000000000000000000000000815260040160405180910390fd5b6040518060a001604052803373ffffffffffffffffffffffffffffffffffffffff1681526020018573ffffffffffffffffffffffffffffffffffffffff1681526020018573ffffffffffffffffffffffffffffffffffffffff1663fcf6c23c6040518163ffffffff1660e01b8152600401600060405180830381865afa158015610c96573d6000803e3d6000fd5b505050506040513d6000823e3d601f19601f82011682018060405250810190610cbf919061228a565b81526020018573ffffffffffffffffffffffffffffffffffffffff16637d3dd5516040518163ffffffff1660e01b8152600401600060405180830381865afa158015610d0f573d6000803e3d6000fd5b505050506040513d6000823e3d601f19601f82011682018060405250810190610d38919061228a565b81526020018573ffffffffffffffffffffffffffffffffffffffff16637a5caab36040518163ffffffff1660e01b8152600401602060405180830381865afa158015610d88573d6000803e3d6000fd5b505050506040513d601f19601f82011682018060405250810190610dac91906122e8565b815250600460003373ffffffffffffffffffffffffffffffffffffffff1673ffffffffffffffffffffffffffffffffffffffff16815260200190815260200160002060008673ffffffffffffffffffffffffffffffffffffffff1673ffffffffffffffffffffffffffffffffffffffff16815260200190815260200160002060008201518160000160006101000a81548173ffffffffffffffffffffffffffffffffffffffff021916908373ffffffffffffffffffffffffffffffffffffffff16021790555060208201518160010160006101000a81548173ffffffffffffffffffffffffffffffffffffffff021916908373ffffffffffffffffffffffffffffffffffffffff1602179055506040820151816002019081610ece9190612521565b506060820151816003019081610ee49190612521565b50608082015181600401559050503373ffffffffffffffffffffffffffffffffffffffff167f4837445f6f627fb9b83ad5ff3d0a0af15d453e5044ead6a4c3d67183c25af04085600460003373ffffffffffffffffffffffffffffffffffffffff1673ffffffffffffffffffffffffffffffffffffffff16815260200190815260200160002060008873ffffffffffffffffffffffffffffffffffffffff1673ffffffffffffffffffffffffffffffffffffffff168152602001908152602001600020600201600460003373ffffffffffffffffffffffffffffffffffffffff1673ffffffffffffffffffffffffffffffffffffffff16815260200190815260200160002060008973ffffffffffffffffffffffffffffffffffffffff1673ffffffffffffffffffffffffffffffffffffffff168152602001908152602001600020600301600460003373ffffffffffffffffffffffffffffffffffffffff1673ffffffffffffffffffffffffffffffffffffffff16815260200190815260200160002060008a73ffffffffffffffffffffffffffffffffffffffff1673ffffffffffffffffffffffffffffffffffffffff168152602001908152602001600020600401546040516110b99493929190612688565b60405180910390a2506110ca611c1a565b505050565b60035481565b6110dd611b4d565b6110e76000611c23565b565b60008060009054906101000a900473ffffffffffffffffffffffffffffffffffffffff16905090565b6000600354905090565b611124611b4d565b80600260006101000a81548173ffffffffffffffffffffffffffffffffffffffff021916908373ffffffffffffffffffffffffffffffffffffffff16021790555061116e81611ac7565b7fa2ea9883a321a3e97b8266c2b078bfeec6d50c711ed71f874a90d500ae2eaf368160405161119d9190611ee2565b60405180910390a150565b6111b0611d2f565b600460008473ffffffffffffffffffffffffffffffffffffffff1673ffffffffffffffffffffffffffffffffffffffff16815260200190815260200160002060008373ffffffffffffffffffffffffffffffffffffffff1673ffffffffffffffffffffffffffffffffffffffff1681526020019081526020016000206040518060a00160405290816000820160009054906101000a900473ffffffffffffffffffffffffffffffffffffffff1673ffffffffffffffffffffffffffffffffffffffff1673ffffffffffffffffffffffffffffffffffffffff1681526020016001820160009054906101000a900473ffffffffffffffffffffffffffffffffffffffff1673ffffffffffffffffffffffffffffffffffffffff1673ffffffffffffffffffffffffffffffffffffffff1681526020016002820180546112f390612344565b80601f016020809104026020016040519081016040528092919081815260200182805461131f90612344565b801561136c5780601f106113415761010080835404028352916020019161136c565b820191906000526020600020905b81548152906001019060200180831161134f57829003601f168201915b5050505050815260200160038201805461138590612344565b80601f01602080910402602001604051908101604052809291908181526020018280546113b190612344565b80156113fe5780601f106113d3576101008083540402835291602001916113fe565b820191906000526020600020905b8154815290600101906020018083116113e157829003601f168201915b50505050508152602001600482015481525050905092915050565b8073ffffffffffffffffffffffffffffffffffffffff16637710bcfb6040518163ffffffff1660e01b8152600401602060405180830381865afa158015611464573d6000803e3d6000fd5b505050506040513d601f19601f8201168201806040525081019061148891906120e5565b81600073ffffffffffffffffffffffffffffffffffffffff16600460008473ffffffffffffffffffffffffffffffffffffffff1673ffffffffffffffffffffffffffffffffffffffff16815260200190815260200160002060008373ffffffffffffffffffffffffffffffffffffffff1673ffffffffffffffffffffffffffffffffffffffff16815260200190815260200160002060010160009054906101000a900473ffffffffffffffffffffffffffffffffffffffff1673ffffffffffffffffffffffffffffffffffffffff160361158e576040517ff9fd269300000000000000000000000000000000000000000000000000000000815260040160405180910390fd5b611596611bd4565b6000600460008573ffffffffffffffffffffffffffffffffffffffff16637710bcfb6040518163ffffffff1660e01b8152600401602060405180830381865afa1580156115e7573d6000803e3d6000fd5b505050506040513d601f19601f8201168201806040525081019061160b91906120e5565b73ffffffffffffffffffffffffffffffffffffffff1673ffffffffffffffffffffffffffffffffffffffff16815260200190815260200160002060008573ffffffffffffffffffffffffffffffffffffffff1673ffffffffffffffffffffffffffffffffffffffff1681526020019081526020016000206040518060a00160405290816000820160009054906101000a900473ffffffffffffffffffffffffffffffffffffffff1673ffffffffffffffffffffffffffffffffffffffff1673ffffffffffffffffffffffffffffffffffffffff1681526020016001820160009054906101000a900473ffffffffffffffffffffffffffffffffffffffff1673ffffffffffffffffffffffffffffffffffffffff1673ffffffffffffffffffffffffffffffffffffffff16815260200160028201805461174990612344565b80601f016020809104026020016040519081016040528092919081815260200182805461177590612344565b80156117c25780601f10611797576101008083540402835291602001916117c2565b820191906000526020600020905b8154815290600101906020018083116117a557829003601f168201915b505050505081526020016003820180546117db90612344565b80601f016020809104026020016040519081016040528092919081815260200182805461180790612344565b80156118545780601f1061182957610100808354040283529160200191611854565b820191906000526020600020905b81548152906001019060200180831161183757829003601f168201915b50505050508152602001600482015481525050905034816080015111156118b8573481608001516040517ffb6232f60000000000000000000000000000000000000000000000000000000081526004016118af92919061213b565b60405180910390fd5b60008473ffffffffffffffffffffffffffffffffffffffff1634336040516024016118e39190611ee2565b6040516020818303038152906040527f54ba0f27000000000000000000000000000000000000000000000000000000007bffffffffffffffffffffffffffffffffffffffffffffffffffffffff19166020820180517bffffffffffffffffffffffffffffffffffffffffffffffffffffffff838183161783525050505060405161196d9190612717565b60006040518083038185875af1925050503d80600081146119aa576040519150601f19603f3d011682016040523d82523d6000602084013e6119af565b606091505b50509050806119ea576040517f8421543500000000000000000000000000000000000000000000000000000000815260040160405180910390fd5b8473ffffffffffffffffffffffffffffffffffffffff16637710bcfb6040518163ffffffff1660e01b8152600401602060405180830381865afa158015611a35573d6000803e3d6000fd5b505050506040513d601f19601f82011682018060405250810190611a5991906120e5565b73ffffffffffffffffffffffffffffffffffffffff167fffc1a05fed963bf870689da19756ad79b1fbb83e344ea31fdd528ec62293004a83602001518460400151856060015133604051611ab09493929190612767565b60405180910390a25050611ac2611c1a565b505050565b611acf611b4d565b600073ffffffffffffffffffffffffffffffffffffffff168173ffffffffffffffffffffffffffffffffffffffff1603611b415760006040517f1e4fbdf7000000000000000000000000000000000000000000000000000000008152600401611b389190611ee2565b60405180910390fd5b611b4a81611c23565b50565b611b55611ce7565b73ffffffffffffffffffffffffffffffffffffffff16611b736110e9565b73ffffffffffffffffffffffffffffffffffffffff1614611bd257611b96611ce7565b6040517f118cdaa7000000000000000000000000000000000000000000000000000000008152600401611bc99190611ee2565b60405180910390fd5b565b600260015403611c10576040517f3ee5aeb500000000000000000000000000000000000000000000000000000000815260040160405180910390fd5b6002600181905550565b60018081905550565b60008060009054906101000a900473ffffffffffffffffffffffffffffffffffffffff169050816000806101000a81548173ffffffffffffffffffffffffffffffffffffffff021916908373ffffffffffffffffffffffffffffffffffffffff1602179055508173ffffffffffffffffffffffffffffffffffffffff168173ffffffffffffffffffffffffffffffffffffffff167f8be0079c531659141344cd1fd0a4f28419497f9722a3daafe3b4186f6b6457e060405160405180910390a35050565b600033905090565b508054611cfb90612344565b6000825580601f10611d0d5750611d2c565b601f016020900490600052602060002090810190611d2b9190611d8a565b5b50565b6040518060a00160405280600073ffffffffffffffffffffffffffffffffffffffff168152602001600073ffffffffffffffffffffffffffffffffffffffff1681526020016060815260200160608152602001600081525090565b5b80821115611da3576000816000905550600101611d8b565b5090565b6000604051905090565b600080fd5b600080fd5b6000819050919050565b611dce81611dbb565b8114611dd957600080fd5b50565b600081359050611deb81611dc5565b92915050565b600060208284031215611e0757611e06611db1565b5b6000611e1584828501611ddc565b91505092915050565b600073ffffffffffffffffffffffffffffffffffffffff82169050919050565b6000611e4982611e1e565b9050919050565b611e5981611e3e565b8114611e6457600080fd5b50565b600081359050611e7681611e50565b92915050565b600060208284031215611e9257611e91611db1565b5b6000611ea084828501611e67565b91505092915050565b611eb281611dbb565b82525050565b6000602082019050611ecd6000830184611ea9565b92915050565b611edc81611e3e565b82525050565b6000602082019050611ef76000830184611ed3565b92915050565b60008060408385031215611f1457611f13611db1565b5b6000611f2285828601611e67565b9250506020611f3385828601611e67565b9150509250929050565b611f4681611e3e565b82525050565b600081519050919050565b600082825260208201905092915050565b60005b83811015611f86578082015181840152602081019050611f6b565b60008484015250505050565b6000601f19601f8301169050919050565b6000611fae82611f4c565b611fb88185611f57565b9350611fc8818560208601611f68565b611fd181611f92565b840191505092915050565b611fe581611dbb565b82525050565b600060a0830160008301516120036000860182611f3d565b5060208301516120166020860182611f3d565b506040830151848203604086015261202e8282611fa3565b915050606083015184820360608601526120488282611fa3565b915050608083015161205d6080860182611fdc565b508091505092915050565b600060208201905081810360008301526120828184611feb565b905092915050565b600081905092915050565b50565b60006120a560008361208a565b91506120b082612095565b600082019050919050565b60006120c682612098565b9150819050919050565b6000815190506120df81611e50565b92915050565b6000602082840312156120fb576120fa611db1565b5b6000612109848285016120d0565b91505092915050565b60006040820190506121276000830185611ed3565b6121346020830184611ed3565b9392505050565b60006040820190506121506000830185611ea9565b61215d6020830184611ea9565b9392505050565b600080fd5b600080fd5b7f4e487b7100000000000000000000000000000000000000000000000000000000600052604160045260246000fd5b6121a682611f92565b810181811067ffffffffffffffff821117156121c5576121c461216e565b5b80604052505050565b60006121d8611da7565b90506121e4828261219d565b919050565b600067ffffffffffffffff8211156122045761220361216e565b5b61220d82611f92565b9050602081019050919050565b600061222d612228846121e9565b6121ce565b90508281526020810184848401111561224957612248612169565b5b612254848285611f68565b509392505050565b600082601f83011261227157612270612164565b5b815161228184826020860161221a565b91505092915050565b6000602082840312156122a05761229f611db1565b5b600082015167ffffffffffffffff8111156122be576122bd611db6565b5b6122ca8482850161225c565b91505092915050565b6000815190506122e281611dc5565b92915050565b6000602082840312156122fe576122fd611db1565b5b600061230c848285016122d3565b91505092915050565b7f4e487b7100000000000000000000000000000000000000000000000000000000600052602260045260246000fd5b6000600282049050600182168061235c57607f821691505b60208210810361236f5761236e612315565b5b50919050565b60008190508160005260206000209050919050565b60006020601f8301049050919050565b600082821b905092915050565b6000600883026123d77fffffffffffffffffffffffffffffffffffffffffffffffffffffffffffffffff8261239a565b6123e1868361239a565b95508019841693508086168417925050509392505050565b6000819050919050565b600061241e61241961241484611dbb565b6123f9565b611dbb565b9050919050565b6000819050919050565b61243883612403565b61244c61244482612425565b8484546123a7565b825550505050565b600090565b612461612454565b61246c81848461242f565b505050565b5b8181101561249057612485600082612459565b600181019050612472565b5050565b601f8211156124d5576124a681612375565b6124af8461238a565b810160208510156124be578190505b6124d26124ca8561238a565b830182612471565b50505b505050565b600082821c905092915050565b60006124f8600019846008026124da565b1980831691505092915050565b600061251183836124e7565b9150826002028217905092915050565b61252a82611f4c565b67ffffffffffffffff8111156125435761254261216e565b5b61254d8254612344565b612558828285612494565b600060209050601f83116001811461258b5760008415612579578287015190505b6125838582612505565b8655506125eb565b601f19841661259986612375565b60005b828110156125c15784890151825560018201915060208501945060208101905061259c565b868310156125de57848901516125da601f8916826124e7565b8355505b6001600288020188555050505b505050505050565b600082825260208201905092915050565b6000815461261181612344565b61261b81866125f3565b94506001821660008114612636576001811461264c5761267f565b60ff19831686528115156020028601935061267f565b61265585612375565b60005b8381101561267757815481890152600182019150602081019050612658565b808801955050505b50505092915050565b600060808201905061269d6000830187611ed3565b81810360208301526126af8186612604565b905081810360408301526126c38185612604565b90506126d26060830184611ea9565b95945050505050565b600081519050919050565b60006126f1826126db565b6126fb818561208a565b935061270b818560208601611f68565b80840191505092915050565b600061272382846126e6565b915081905092915050565b600061273982611f4c565b61274381856125f3565b9350612753818560208601611f68565b61275c81611f92565b840191505092915050565b600060808201905061277c6000830187611ed3565b818103602083015261278e818661272e565b905081810360408301526127a2818561272e565b90506127b16060830184611ed3565b9594505050505056fea26469706673582212200d0fd3371a37e0de5e923e80364cbd7c4e9eb1518ae6a22274cee43343c6fd9f64736f6c63430008180033",
  "devdoc": {
    "errors": {
      "OwnableInvalidOwner(address)": [
        {
          "details": "The owner is not a valid owner account. (eg. `address(0)`)"
        }
      ],
      "OwnableUnauthorizedAccount(address)": [
        {
          "details": "The caller account is not authorized to perform an operation."
        }
      ],
      "ReentrancyGuardReentrantCall()": [
        {
          "details": "Unauthorized reentrant call."
        }
      ]
    },
    "kind": "dev",
    "methods": {
      "owner()": {
        "details": "Returns the address of the current owner."
      },
      "renounceOwnership()": {
        "details": "Leaves the contract without owner. It will not be possible to call `onlyOwner` functions. Can only be called by the current owner. NOTE: Renouncing ownership will leave the contract without an owner, thereby disabling any functionality that is only available to the owner."
      },
      "transferOwnership(address)": {
        "details": "Transfers ownership of the contract to a new account (`newOwner`). Can only be called by the current owner."
      }
    },
    "version": 1
  },
  "userdoc": {
    "kind": "user",
    "methods": {},
    "version": 1
  },
  "storageLayout": {
    "storage": [
      {
        "astId": 8,
        "contract": "contracts/FileMarketplace.sol:FileMarketplace",
        "label": "_owner",
        "offset": 0,
        "slot": "0",
        "type": "t_address"
      },
      {
        "astId": 188,
        "contract": "contracts/FileMarketplace.sol:FileMarketplace",
        "label": "_status",
        "offset": 0,
        "slot": "1",
        "type": "t_uint256"
      },
      {
        "astId": 338,
        "contract": "contracts/FileMarketplace.sol:FileMarketplace",
        "label": "fileMarketplaceOwner",
        "offset": 0,
        "slot": "2",
        "type": "t_address"
      },
      {
        "astId": 340,
        "contract": "contracts/FileMarketplace.sol:FileMarketplace",
        "label": "commissionFee",
        "offset": 0,
        "slot": "3",
        "type": "t_uint256"
      },
      {
        "astId": 347,
        "contract": "contracts/FileMarketplace.sol:FileMarketplace",
        "label": "listings",
        "offset": 0,
        "slot": "4",
        "type": "t_mapping(t_address,t_mapping(t_address,t_struct(Listing)266_storage))"
      }
    ],
    "types": {
      "t_address": {
        "encoding": "inplace",
        "label": "address",
        "numberOfBytes": "20"
      },
      "t_mapping(t_address,t_mapping(t_address,t_struct(Listing)266_storage))": {
        "encoding": "mapping",
        "key": "t_address",
        "label": "mapping(address => mapping(address => struct FileMarketplace.Listing))",
        "numberOfBytes": "32",
        "value": "t_mapping(t_address,t_struct(Listing)266_storage)"
      },
      "t_mapping(t_address,t_struct(Listing)266_storage)": {
        "encoding": "mapping",
        "key": "t_address",
        "label": "mapping(address => struct FileMarketplace.Listing)",
        "numberOfBytes": "32",
        "value": "t_struct(Listing)266_storage"
      },
      "t_string_storage": {
        "encoding": "bytes",
        "label": "string",
        "numberOfBytes": "32"
      },
      "t_struct(Listing)266_storage": {
        "encoding": "inplace",
        "label": "struct FileMarketplace.Listing",
        "members": [
          {
            "astId": 257,
            "contract": "contracts/FileMarketplace.sol:FileMarketplace",
            "label": "fileTokenOwner",
            "offset": 0,
            "slot": "0",
            "type": "t_address"
          },
          {
            "astId": 259,
            "contract": "contracts/FileMarketplace.sol:FileMarketplace",
            "label": "fileToken",
            "offset": 0,
            "slot": "1",
            "type": "t_address"
          },
          {
            "astId": 261,
            "contract": "contracts/FileMarketplace.sol:FileMarketplace",
            "label": "fileName",
            "offset": 0,
            "slot": "2",
            "type": "t_string_storage"
          },
          {
            "astId": 263,
            "contract": "contracts/FileMarketplace.sol:FileMarketplace",
            "label": "fileSymbol",
            "offset": 0,
            "slot": "3",
            "type": "t_string_storage"
          },
          {
            "astId": 265,
            "contract": "contracts/FileMarketplace.sol:FileMarketplace",
            "label": "price",
            "offset": 0,
            "slot": "4",
            "type": "t_uint256"
          }
        ],
        "numberOfBytes": "160"
      },
      "t_uint256": {
        "encoding": "inplace",
        "label": "uint256",
        "numberOfBytes": "32"
      }
    }
  }
}